{
  "_format": "hh-sol-artifact-1",
  "contractName": "SaleToken",
  "sourceName": "contracts/tokenSale.sol",
  "abi": [
    {
      "inputs": [
        {
          "internalType": "uint256",
          "name": "initialSupply",
          "type": "uint256"
        }
      ],
      "stateMutability": "nonpayable",
      "type": "constructor"
    },
    {
      "anonymous": false,
      "inputs": [
        {
          "indexed": true,
          "internalType": "address",
          "name": "owner",
          "type": "address"
        },
        {
          "indexed": true,
          "internalType": "address",
          "name": "spender",
          "type": "address"
        },
        {
          "indexed": false,
          "internalType": "uint256",
          "name": "value",
          "type": "uint256"
        }
      ],
      "name": "Approval",
      "type": "event"
    },
    {
      "anonymous": false,
      "inputs": [
        {
          "indexed": true,
          "internalType": "address",
          "name": "from",
          "type": "address"
        },
        {
          "indexed": true,
          "internalType": "address",
          "name": "to",
          "type": "address"
        },
        {
          "indexed": false,
          "internalType": "uint256",
          "name": "value",
          "type": "uint256"
        }
      ],
      "name": "Transfer",
      "type": "event"
    },
    {
      "inputs": [
        {
          "internalType": "address",
          "name": "owner",
          "type": "address"
        },
        {
          "internalType": "address",
          "name": "spender",
          "type": "address"
        }
      ],
      "name": "allowance",
      "outputs": [
        {
          "internalType": "uint256",
          "name": "",
          "type": "uint256"
        }
      ],
      "stateMutability": "view",
      "type": "function"
    },
    {
      "inputs": [
        {
          "internalType": "address",
          "name": "spender",
          "type": "address"
        },
        {
          "internalType": "uint256",
          "name": "amount",
          "type": "uint256"
        }
      ],
      "name": "approve",
      "outputs": [
        {
          "internalType": "bool",
          "name": "",
          "type": "bool"
        }
      ],
      "stateMutability": "nonpayable",
      "type": "function"
    },
    {
      "inputs": [
        {
          "internalType": "address",
          "name": "account",
          "type": "address"
        }
      ],
      "name": "balanceOf",
      "outputs": [
        {
          "internalType": "uint256",
          "name": "",
          "type": "uint256"
        }
      ],
      "stateMutability": "view",
      "type": "function"
    },
    {
      "inputs": [
        {
          "internalType": "address",
          "name": "target",
          "type": "address"
        }
      ],
      "name": "blacklist",
      "outputs": [],
      "stateMutability": "nonpayable",
      "type": "function"
    },
    {
      "inputs": [],
      "name": "centralAuthority",
      "outputs": [
        {
          "internalType": "address",
          "name": "",
          "type": "address"
        }
      ],
      "stateMutability": "view",
      "type": "function"
    },
    {
      "inputs": [],
      "name": "decimals",
      "outputs": [
        {
          "internalType": "uint8",
          "name": "",
          "type": "uint8"
        }
      ],
      "stateMutability": "view",
      "type": "function"
    },
    {
      "inputs": [
        {
          "internalType": "address",
          "name": "spender",
          "type": "address"
        },
        {
          "internalType": "uint256",
          "name": "subtractedValue",
          "type": "uint256"
        }
      ],
      "name": "decreaseAllowance",
      "outputs": [
        {
          "internalType": "bool",
          "name": "",
          "type": "bool"
        }
      ],
      "stateMutability": "nonpayable",
      "type": "function"
    },
    {
      "inputs": [
        {
          "internalType": "address",
          "name": "spender",
          "type": "address"
        },
        {
          "internalType": "uint256",
          "name": "addedValue",
          "type": "uint256"
        }
      ],
      "name": "increaseAllowance",
      "outputs": [
        {
          "internalType": "bool",
          "name": "",
          "type": "bool"
        }
      ],
      "stateMutability": "nonpayable",
      "type": "function"
    },
    {
      "inputs": [],
      "name": "mintTokens",
      "outputs": [],
      "stateMutability": "payable",
      "type": "function"
    },
    {
      "inputs": [],
      "name": "name",
      "outputs": [
        {
          "internalType": "string",
          "name": "",
          "type": "string"
        }
      ],
      "stateMutability": "view",
      "type": "function"
    },
    {
      "inputs": [
        {
          "internalType": "uint256",
          "name": "amount",
          "type": "uint256"
        }
      ],
      "name": "sellBack",
      "outputs": [],
      "stateMutability": "nonpayable",
      "type": "function"
    },
    {
      "inputs": [],
      "name": "symbol",
      "outputs": [
        {
          "internalType": "string",
          "name": "",
          "type": "string"
        }
      ],
      "stateMutability": "view",
      "type": "function"
    },
    {
      "inputs": [],
      "name": "totalSupply",
      "outputs": [
        {
          "internalType": "uint256",
          "name": "",
          "type": "uint256"
        }
      ],
      "stateMutability": "view",
      "type": "function"
    },
    {
      "inputs": [
        {
          "internalType": "address",
          "name": "to",
          "type": "address"
        },
        {
          "internalType": "uint256",
          "name": "amount",
          "type": "uint256"
        }
      ],
      "name": "transfer",
      "outputs": [
        {
          "internalType": "bool",
          "name": "",
          "type": "bool"
        }
      ],
      "stateMutability": "nonpayable",
      "type": "function"
    },
    {
      "inputs": [
        {
          "internalType": "address",
          "name": "from",
          "type": "address"
        },
        {
          "internalType": "address",
          "name": "to",
          "type": "address"
        },
        {
          "internalType": "uint256",
          "name": "amount",
          "type": "uint256"
        }
      ],
      "name": "transferFrom",
      "outputs": [
        {
          "internalType": "bool",
          "name": "",
          "type": "bool"
        }
      ],
      "stateMutability": "nonpayable",
      "type": "function"
    },
    {
      "inputs": [
        {
          "internalType": "address",
          "name": "target",
          "type": "address"
        }
      ],
      "name": "unblacklist",
      "outputs": [],
      "stateMutability": "nonpayable",
      "type": "function"
    },
    {
      "inputs": [
        {
          "internalType": "address payable",
          "name": "_reciever",
          "type": "address"
        }
      ],
      "name": "withdraw",
      "outputs": [],
      "stateMutability": "payable",
      "type": "function"
    }
  ],
  "bytecode": "0x60806040523480156200001157600080fd5b506040516200299f3803806200299f8339818101604052810190620000379190620004b9565b6040518060400160405280600a81526020017f53616c6520546f6b656e000000000000000000000000000000000000000000008152506040518060400160405280600381526020017f53414c00000000000000000000000000000000000000000000000000000000008152508160039080519060200190620000bb929190620003c9565b508060049080519060200190620000d4929190620003c9565b505050620000e933826200013160201b60201c565b33600660006101000a81548173ffffffffffffffffffffffffffffffffffffffff021916908373ffffffffffffffffffffffffffffffffffffffff1602179055505062000797565b600073ffffffffffffffffffffffffffffffffffffffff168273ffffffffffffffffffffffffffffffffffffffff161415620001a4576040517f08c379a00000000000000000000000000000000000000000000000000000000081526004016200019b906200054c565b60405180910390fd5b620001b8600083836200029f60201b60201c565b8060026000828254620001cc91906200059d565b92505081905550806000808473ffffffffffffffffffffffffffffffffffffffff1673ffffffffffffffffffffffffffffffffffffffff168152602001908152602001600020600082825401925050819055508173ffffffffffffffffffffffffffffffffffffffff16600073ffffffffffffffffffffffffffffffffffffffff167fddf252ad1be2c89b69c2b068fc378daa952ba7f163c4a11628f55a4df523b3ef836040516200027f91906200060b565b60405180910390a36200029b60008383620003c460201b60201c565b5050565b600560008473ffffffffffffffffffffffffffffffffffffffff1673ffffffffffffffffffffffffffffffffffffffff16815260200190815260200160002060009054906101000a900460ff16156200032f576040517f08c379a0000000000000000000000000000000000000000000000000000000008152600401620003269062000678565b60405180910390fd5b600560008373ffffffffffffffffffffffffffffffffffffffff1673ffffffffffffffffffffffffffffffffffffffff16815260200190815260200160002060009054906101000a900460ff1615620003bf576040517f08c379a0000000000000000000000000000000000000000000000000000000008152600401620003b69062000710565b60405180910390fd5b505050565b505050565b828054620003d79062000761565b90600052602060002090601f016020900481019282620003fb576000855562000447565b82601f106200041657805160ff191683800117855562000447565b8280016001018555821562000447579182015b828111156200044657825182559160200191906001019062000429565b5b5090506200045691906200045a565b5090565b5b80821115620004755760008160009055506001016200045b565b5090565b600080fd5b6000819050919050565b62000493816200047e565b81146200049f57600080fd5b50565b600081519050620004b38162000488565b92915050565b600060208284031215620004d257620004d162000479565b5b6000620004e284828501620004a2565b91505092915050565b600082825260208201905092915050565b7f45524332303a206d696e7420746f20746865207a65726f206164647265737300600082015250565b600062000534601f83620004eb565b91506200054182620004fc565b602082019050919050565b60006020820190508181036000830152620005678162000525565b9050919050565b7f4e487b7100000000000000000000000000000000000000000000000000000000600052601160045260246000fd5b6000620005aa826200047e565b9150620005b7836200047e565b9250827fffffffffffffffffffffffffffffffffffffffffffffffffffffffffffffffff03821115620005ef57620005ee6200056e565b5b828201905092915050565b62000605816200047e565b82525050565b6000602082019050620006226000830184620005fa565b92915050565b7f53656e646572206164647265737320697320626c61636b6c69737465642e0000600082015250565b600062000660601e83620004eb565b91506200066d8262000628565b602082019050919050565b60006020820190508181036000830152620006938162000651565b9050919050565b7f526563697069656e74206164647265737320697320626c61636b6c697374656460008201527f2e00000000000000000000000000000000000000000000000000000000000000602082015250565b6000620006f8602183620004eb565b915062000705826200069a565b604082019050919050565b600060208201905081810360008301526200072b81620006e9565b9050919050565b7f4e487b7100000000000000000000000000000000000000000000000000000000600052602260045260246000fd5b600060028204905060018216806200077a57607f821691505b6020821081141562000791576200079062000732565b5b50919050565b6121f880620007a76000396000f3fe6080604052600436106100fe5760003560e01c806375e3661e11610095578063ad5d4bc511610064578063ad5d4bc514610362578063dd62ed3e1461038b578063e77ff2f6146103c8578063eeb9635c146103f3578063f9f92be4146103fd576100fe565b806375e3661e1461029457806395d89b41146102bd578063a457c2d7146102e8578063a9059cbb14610325576100fe565b8063313ce567116100d1578063313ce567146101d357806339509351146101fe57806351cff8d91461023b57806370a0823114610257576100fe565b806306fdde0314610103578063095ea7b31461012e57806318160ddd1461016b57806323b872dd14610196575b600080fd5b34801561010f57600080fd5b50610118610426565b6040516101259190611388565b60405180910390f35b34801561013a57600080fd5b5061015560048036038101906101509190611443565b6104b8565b604051610162919061149e565b60405180910390f35b34801561017757600080fd5b506101806104db565b60405161018d91906114c8565b60405180910390f35b3480156101a257600080fd5b506101bd60048036038101906101b891906114e3565b6104e5565b6040516101ca919061149e565b60405180910390f35b3480156101df57600080fd5b506101e8610514565b6040516101f59190611552565b60405180910390f35b34801561020a57600080fd5b5061022560048036038101906102209190611443565b61051d565b604051610232919061149e565b60405180910390f35b610255600480360381019061025091906115ab565b610554565b005b34801561026357600080fd5b5061027e600480360381019061027991906115d8565b61063b565b60405161028b91906114c8565b60405180910390f35b3480156102a057600080fd5b506102bb60048036038101906102b691906115d8565b610683565b005b3480156102c957600080fd5b506102d261076e565b6040516102df9190611388565b60405180910390f35b3480156102f457600080fd5b5061030f600480360381019061030a9190611443565b610800565b60405161031c919061149e565b60405180910390f35b34801561033157600080fd5b5061034c60048036038101906103479190611443565b610877565b604051610359919061149e565b60405180910390f35b34801561036e57600080fd5b5061038960048036038101906103849190611605565b61089a565b005b34801561039757600080fd5b506103b260048036038101906103ad9190611632565b610999565b6040516103bf91906114c8565b60405180910390f35b3480156103d457600080fd5b506103dd610a20565b6040516103ea9190611681565b60405180910390f35b6103fb610a46565b005b34801561040957600080fd5b50610424600480360381019061041f91906115d8565b610ab2565b005b606060038054610435906116cb565b80601f0160208091040260200160405190810160405280929190818152602001828054610461906116cb565b80156104ae5780601f10610483576101008083540402835291602001916104ae565b820191906000526020600020905b81548152906001019060200180831161049157829003601f168201915b5050505050905090565b6000806104c3610b9d565b90506104d0818585610ba5565b600191505092915050565b6000600254905090565b6000806104f0610b9d565b90506104fd858285610d70565b610508858585610dfc565b60019150509392505050565b60006012905090565b600080610528610b9d565b905061054981858561053a8589610999565b610544919061172c565b610ba5565b600191505092915050565b600660009054906101000a900473ffffffffffffffffffffffffffffffffffffffff1673ffffffffffffffffffffffffffffffffffffffff163373ffffffffffffffffffffffffffffffffffffffff16146105e4576040517f08c379a00000000000000000000000000000000000000000000000000000000081526004016105db906117f4565b60405180910390fd5b60004711610627576040517f08c379a000000000000000000000000000000000000000000000000000000000815260040161061e90611860565b60405180910390fd5b60003390506106368147610877565b505050565b60008060008373ffffffffffffffffffffffffffffffffffffffff1673ffffffffffffffffffffffffffffffffffffffff168152602001908152602001600020549050919050565b600660009054906101000a900473ffffffffffffffffffffffffffffffffffffffff1673ffffffffffffffffffffffffffffffffffffffff163373ffffffffffffffffffffffffffffffffffffffff1614610713576040517f08c379a000000000000000000000000000000000000000000000000000000000815260040161070a906118f2565b60405180910390fd5b6000600560008373ffffffffffffffffffffffffffffffffffffffff1673ffffffffffffffffffffffffffffffffffffffff16815260200190815260200160002060006101000a81548160ff02191690831515021790555050565b60606004805461077d906116cb565b80601f01602080910402602001604051908101604052809291908181526020018280546107a9906116cb565b80156107f65780601f106107cb576101008083540402835291602001916107f6565b820191906000526020600020905b8154815290600101906020018083116107d957829003601f168201915b5050505050905090565b60008061080b610b9d565b905060006108198286610999565b90508381101561085e576040517f08c379a000000000000000000000000000000000000000000000000000000000815260040161085590611984565b60405180910390fd5b61086b8286868403610ba5565b60019250505092915050565b600080610882610b9d565b905061088f818585610dfc565b600191505092915050565b600081116108dd576040517f08c379a00000000000000000000000000000000000000000000000000000000081526004016108d4906119f0565b60405180910390fd5b6108e63361063b565b811115610928576040517f08c379a000000000000000000000000000000000000000000000000000000000815260040161091f90611a5c565b60405180910390fd5b6101f4816109369190611aab565b471015610978576040517f08c379a000000000000000000000000000000000000000000000000000000000815260040161096f90611b4e565b60405180910390fd5b61098230826104b8565b5060006101f4826109939190611aab565b90505050565b6000600160008473ffffffffffffffffffffffffffffffffffffffff1673ffffffffffffffffffffffffffffffffffffffff16815260200190815260200160002060008373ffffffffffffffffffffffffffffffffffffffff1673ffffffffffffffffffffffffffffffffffffffff16815260200190815260200160002054905092915050565b600660009054906101000a900473ffffffffffffffffffffffffffffffffffffffff1681565b620f4240610a526104db565b1115610a93576040517f08c379a0000000000000000000000000000000000000000000000000000000008152600401610a8a90611c06565b60405180910390fd5b60006103e834610aa39190611c26565b9050610aaf3382611074565b50565b600660009054906101000a900473ffffffffffffffffffffffffffffffffffffffff1673ffffffffffffffffffffffffffffffffffffffff163373ffffffffffffffffffffffffffffffffffffffff1614610b42576040517f08c379a0000000000000000000000000000000000000000000000000000000008152600401610b3990611cf2565b60405180910390fd5b6001600560008373ffffffffffffffffffffffffffffffffffffffff1673ffffffffffffffffffffffffffffffffffffffff16815260200190815260200160002060006101000a81548160ff02191690831515021790555050565b600033905090565b600073ffffffffffffffffffffffffffffffffffffffff168373ffffffffffffffffffffffffffffffffffffffff161415610c15576040517f08c379a0000000000000000000000000000000000000000000000000000000008152600401610c0c90611d84565b60405180910390fd5b600073ffffffffffffffffffffffffffffffffffffffff168273ffffffffffffffffffffffffffffffffffffffff161415610c85576040517f08c379a0000000000000000000000000000000000000000000000000000000008152600401610c7c90611e16565b60405180910390fd5b80600160008573ffffffffffffffffffffffffffffffffffffffff1673ffffffffffffffffffffffffffffffffffffffff16815260200190815260200160002060008473ffffffffffffffffffffffffffffffffffffffff1673ffffffffffffffffffffffffffffffffffffffff168152602001908152602001600020819055508173ffffffffffffffffffffffffffffffffffffffff168373ffffffffffffffffffffffffffffffffffffffff167f8c5be1e5ebec7d5bd14f71427d1e84f3dd0314c0f7b2291e5b200ac8c7c3b92583604051610d6391906114c8565b60405180910390a3505050565b6000610d7c8484610999565b90507fffffffffffffffffffffffffffffffffffffffffffffffffffffffffffffffff8114610df65781811015610de8576040517f08c379a0000000000000000000000000000000000000000000000000000000008152600401610ddf90611e82565b60405180910390fd5b610df58484848403610ba5565b5b50505050565b600073ffffffffffffffffffffffffffffffffffffffff168373ffffffffffffffffffffffffffffffffffffffff161415610e6c576040517f08c379a0000000000000000000000000000000000000000000000000000000008152600401610e6390611f14565b60405180910390fd5b600073ffffffffffffffffffffffffffffffffffffffff168273ffffffffffffffffffffffffffffffffffffffff161415610edc576040517f08c379a0000000000000000000000000000000000000000000000000000000008152600401610ed390611fa6565b60405180910390fd5b610ee78383836111cb565b60008060008573ffffffffffffffffffffffffffffffffffffffff1673ffffffffffffffffffffffffffffffffffffffff16815260200190815260200160002054905081811015610f6d576040517f08c379a0000000000000000000000000000000000000000000000000000000008152600401610f6490612038565b60405180910390fd5b8181036000808673ffffffffffffffffffffffffffffffffffffffff1673ffffffffffffffffffffffffffffffffffffffff16815260200190815260200160002081905550816000808573ffffffffffffffffffffffffffffffffffffffff1673ffffffffffffffffffffffffffffffffffffffff168152602001908152602001600020600082825401925050819055508273ffffffffffffffffffffffffffffffffffffffff168473ffffffffffffffffffffffffffffffffffffffff167fddf252ad1be2c89b69c2b068fc378daa952ba7f163c4a11628f55a4df523b3ef8460405161105b91906114c8565b60405180910390a361106e8484846112ea565b50505050565b600073ffffffffffffffffffffffffffffffffffffffff168273ffffffffffffffffffffffffffffffffffffffff1614156110e4576040517f08c379a00000000000000000000000000000000000000000000000000000000081526004016110db906120a4565b60405180910390fd5b6110f0600083836111cb565b8060026000828254611102919061172c565b92505081905550806000808473ffffffffffffffffffffffffffffffffffffffff1673ffffffffffffffffffffffffffffffffffffffff168152602001908152602001600020600082825401925050819055508173ffffffffffffffffffffffffffffffffffffffff16600073ffffffffffffffffffffffffffffffffffffffff167fddf252ad1be2c89b69c2b068fc378daa952ba7f163c4a11628f55a4df523b3ef836040516111b391906114c8565b60405180910390a36111c7600083836112ea565b5050565b600560008473ffffffffffffffffffffffffffffffffffffffff1673ffffffffffffffffffffffffffffffffffffffff16815260200190815260200160002060009054906101000a900460ff1615611258576040517f08c379a000000000000000000000000000000000000000000000000000000000815260040161124f90612110565b60405180910390fd5b600560008373ffffffffffffffffffffffffffffffffffffffff1673ffffffffffffffffffffffffffffffffffffffff16815260200190815260200160002060009054906101000a900460ff16156112e5576040517f08c379a00000000000000000000000000000000000000000000000000000000081526004016112dc906121a2565b60405180910390fd5b505050565b505050565b600081519050919050565b600082825260208201905092915050565b60005b8381101561132957808201518184015260208101905061130e565b83811115611338576000848401525b50505050565b6000601f19601f8301169050919050565b600061135a826112ef565b61136481856112fa565b935061137481856020860161130b565b61137d8161133e565b840191505092915050565b600060208201905081810360008301526113a2818461134f565b905092915050565b600080fd5b600073ffffffffffffffffffffffffffffffffffffffff82169050919050565b60006113da826113af565b9050919050565b6113ea816113cf565b81146113f557600080fd5b50565b600081359050611407816113e1565b92915050565b6000819050919050565b6114208161140d565b811461142b57600080fd5b50565b60008135905061143d81611417565b92915050565b6000806040838503121561145a576114596113aa565b5b6000611468858286016113f8565b92505060206114798582860161142e565b9150509250929050565b60008115159050919050565b61149881611483565b82525050565b60006020820190506114b3600083018461148f565b92915050565b6114c28161140d565b82525050565b60006020820190506114dd60008301846114b9565b92915050565b6000806000606084860312156114fc576114fb6113aa565b5b600061150a868287016113f8565b935050602061151b868287016113f8565b925050604061152c8682870161142e565b9150509250925092565b600060ff82169050919050565b61154c81611536565b82525050565b60006020820190506115676000830184611543565b92915050565b6000611578826113af565b9050919050565b6115888161156d565b811461159357600080fd5b50565b6000813590506115a58161157f565b92915050565b6000602082840312156115c1576115c06113aa565b5b60006115cf84828501611596565b91505092915050565b6000602082840312156115ee576115ed6113aa565b5b60006115fc848285016113f8565b91505092915050565b60006020828403121561161b5761161a6113aa565b5b60006116298482850161142e565b91505092915050565b60008060408385031215611649576116486113aa565b5b6000611657858286016113f8565b9250506020611668858286016113f8565b9150509250929050565b61167b816113cf565b82525050565b60006020820190506116966000830184611672565b92915050565b7f4e487b7100000000000000000000000000000000000000000000000000000000600052602260045260246000fd5b600060028204905060018216806116e357607f821691505b602082108114156116f7576116f661169c565b5b50919050565b7f4e487b7100000000000000000000000000000000000000000000000000000000600052601160045260246000fd5b60006117378261140d565b91506117428361140d565b9250827fffffffffffffffffffffffffffffffffffffffffffffffffffffffffffffffff03821115611777576117766116fd565b5b828201905092915050565b7f4f6e6c79207468652063656e7472616c20617574686f726974792063616e207760008201527f697468647261772065746865722066726f6d2074686520636f6e747261637400602082015250565b60006117de603f836112fa565b91506117e982611782565b604082019050919050565b6000602082019050818103600083015261180d816117d1565b9050919050565b7f5468657265206973206e6f20657468657220746f207769746864726177000000600082015250565b600061184a601d836112fa565b915061185582611814565b602082019050919050565b600060208201905081810360008301526118798161183d565b9050919050565b7f4f6e6c79207468652063656e7472616c20617574686f726974792063616e207560008201527f6e626c61636b6c697374206164647265737365732e0000000000000000000000602082015250565b60006118dc6035836112fa565b91506118e782611880565b604082019050919050565b6000602082019050818103600083015261190b816118cf565b9050919050565b7f45524332303a2064656372656173656420616c6c6f77616e63652062656c6f7760008201527f207a65726f000000000000000000000000000000000000000000000000000000602082015250565b600061196e6025836112fa565b915061197982611912565b604082019050919050565b6000602082019050818103600083015261199d81611961565b9050919050565b7f43616e6e6f742073656c6c2030206f72206c65737320746f6b656e732e000000600082015250565b60006119da601d836112fa565b91506119e5826119a4565b602082019050919050565b60006020820190508181036000830152611a09816119cd565b9050919050565b7f496e73756666696369656e742062616c616e636520746f2073656c6c2e000000600082015250565b6000611a46601d836112fa565b9150611a5182611a10565b602082019050919050565b60006020820190508181036000830152611a7581611a39565b9050919050565b7f4e487b7100000000000000000000000000000000000000000000000000000000600052601260045260246000fd5b6000611ab68261140d565b9150611ac18361140d565b925082611ad157611ad0611a7c565b5b828204905092915050565b7f436f6e747261637420646f6573206e6f74206861766520656e6f75676820657460008201527f68657220746f2070617920757365722e00000000000000000000000000000000602082015250565b6000611b386030836112fa565b9150611b4382611adc565b604082019050919050565b60006020820190508181036000830152611b6781611b2b565b9050919050565b7f546f6b656e2073616c6520697320636c6f7365642c207765206861766520726560008201527f616368656420746865206d6178696d756d20737570706c79206f662031206d6960208201527f6c6c696f6e20746f6b656e730000000000000000000000000000000000000000604082015250565b6000611bf0604c836112fa565b9150611bfb82611b6e565b606082019050919050565b60006020820190508181036000830152611c1f81611be3565b9050919050565b6000611c318261140d565b9150611c3c8361140d565b9250817fffffffffffffffffffffffffffffffffffffffffffffffffffffffffffffffff0483118215151615611c7557611c746116fd565b5b828202905092915050565b7f4f6e6c79207468652063656e7472616c20617574686f726974792063616e206260008201527f6c61636b6c697374206164647265737365732e00000000000000000000000000602082015250565b6000611cdc6033836112fa565b9150611ce782611c80565b604082019050919050565b60006020820190508181036000830152611d0b81611ccf565b9050919050565b7f45524332303a20617070726f76652066726f6d20746865207a65726f2061646460008201527f7265737300000000000000000000000000000000000000000000000000000000602082015250565b6000611d6e6024836112fa565b9150611d7982611d12565b604082019050919050565b60006020820190508181036000830152611d9d81611d61565b9050919050565b7f45524332303a20617070726f766520746f20746865207a65726f20616464726560008201527f7373000000000000000000000000000000000000000000000000000000000000602082015250565b6000611e006022836112fa565b9150611e0b82611da4565b604082019050919050565b60006020820190508181036000830152611e2f81611df3565b9050919050565b7f45524332303a20696e73756666696369656e7420616c6c6f77616e6365000000600082015250565b6000611e6c601d836112fa565b9150611e7782611e36565b602082019050919050565b60006020820190508181036000830152611e9b81611e5f565b9050919050565b7f45524332303a207472616e736665722066726f6d20746865207a65726f20616460008201527f6472657373000000000000000000000000000000000000000000000000000000602082015250565b6000611efe6025836112fa565b9150611f0982611ea2565b604082019050919050565b60006020820190508181036000830152611f2d81611ef1565b9050919050565b7f45524332303a207472616e7366657220746f20746865207a65726f206164647260008201527f6573730000000000000000000000000000000000000000000000000000000000602082015250565b6000611f906023836112fa565b9150611f9b82611f34565b604082019050919050565b60006020820190508181036000830152611fbf81611f83565b9050919050565b7f45524332303a207472616e7366657220616d6f756e742065786365656473206260008201527f616c616e63650000000000000000000000000000000000000000000000000000602082015250565b60006120226026836112fa565b915061202d82611fc6565b604082019050919050565b6000602082019050818103600083015261205181612015565b9050919050565b7f45524332303a206d696e7420746f20746865207a65726f206164647265737300600082015250565b600061208e601f836112fa565b915061209982612058565b602082019050919050565b600060208201905081810360008301526120bd81612081565b9050919050565b7f53656e646572206164647265737320697320626c61636b6c69737465642e0000600082015250565b60006120fa601e836112fa565b9150612105826120c4565b602082019050919050565b60006020820190508181036000830152612129816120ed565b9050919050565b7f526563697069656e74206164647265737320697320626c61636b6c697374656460008201527f2e00000000000000000000000000000000000000000000000000000000000000602082015250565b600061218c6021836112fa565b915061219782612130565b604082019050919050565b600060208201905081810360008301526121bb8161217f565b905091905056fea2646970667358221220a36f3a9b43f00f58e5fab758789f9deb7ce3d80cb1d7bd70d946d59e29d5b77d64736f6c63430008090033",
  "linkReferences": {},
  "deployedLinkReferences": {}
}