{
  "_format": "hh-sol-artifact-1",
  "contractName": "SaleToken",
  "sourceName": "contracts/tokenSale.sol",
  "abi": [
    {
      "inputs": [
        {
          "internalType": "uint256",
          "name": "initialSupply",
          "type": "uint256"
        }
      ],
      "stateMutability": "nonpayable",
      "type": "constructor"
    },
    {
      "anonymous": false,
      "inputs": [
        {
          "indexed": true,
          "internalType": "address",
          "name": "owner",
          "type": "address"
        },
        {
          "indexed": true,
          "internalType": "address",
          "name": "spender",
          "type": "address"
        },
        {
          "indexed": false,
          "internalType": "uint256",
          "name": "value",
          "type": "uint256"
        }
      ],
      "name": "Approval",
      "type": "event"
    },
    {
      "anonymous": false,
      "inputs": [
        {
          "indexed": true,
          "internalType": "address",
          "name": "from",
          "type": "address"
        },
        {
          "indexed": true,
          "internalType": "address",
          "name": "to",
          "type": "address"
        },
        {
          "indexed": false,
          "internalType": "uint256",
          "name": "value",
          "type": "uint256"
        }
      ],
      "name": "Transfer",
      "type": "event"
    },
    {
      "inputs": [
        {
          "internalType": "address",
          "name": "owner",
          "type": "address"
        },
        {
          "internalType": "address",
          "name": "spender",
          "type": "address"
        }
      ],
      "name": "allowance",
      "outputs": [
        {
          "internalType": "uint256",
          "name": "",
          "type": "uint256"
        }
      ],
      "stateMutability": "view",
      "type": "function"
    },
    {
      "inputs": [
        {
          "internalType": "address",
          "name": "spender",
          "type": "address"
        },
        {
          "internalType": "uint256",
          "name": "amount",
          "type": "uint256"
        }
      ],
      "name": "approve",
      "outputs": [
        {
          "internalType": "bool",
          "name": "",
          "type": "bool"
        }
      ],
      "stateMutability": "nonpayable",
      "type": "function"
    },
    {
      "inputs": [
        {
          "internalType": "address",
          "name": "account",
          "type": "address"
        }
      ],
      "name": "balanceOf",
      "outputs": [
        {
          "internalType": "uint256",
          "name": "",
          "type": "uint256"
        }
      ],
      "stateMutability": "view",
      "type": "function"
    },
    {
      "inputs": [
        {
          "internalType": "address",
          "name": "target",
          "type": "address"
        }
      ],
      "name": "blacklist",
      "outputs": [],
      "stateMutability": "nonpayable",
      "type": "function"
    },
    {
      "inputs": [],
      "name": "centralAuthority",
      "outputs": [
        {
          "internalType": "address",
          "name": "",
          "type": "address"
        }
      ],
      "stateMutability": "view",
      "type": "function"
    },
    {
      "inputs": [],
      "name": "decimals",
      "outputs": [
        {
          "internalType": "uint8",
          "name": "",
          "type": "uint8"
        }
      ],
      "stateMutability": "view",
      "type": "function"
    },
    {
      "inputs": [
        {
          "internalType": "address",
          "name": "spender",
          "type": "address"
        },
        {
          "internalType": "uint256",
          "name": "subtractedValue",
          "type": "uint256"
        }
      ],
      "name": "decreaseAllowance",
      "outputs": [
        {
          "internalType": "bool",
          "name": "",
          "type": "bool"
        }
      ],
      "stateMutability": "nonpayable",
      "type": "function"
    },
    {
      "inputs": [
        {
          "internalType": "address",
          "name": "spender",
          "type": "address"
        },
        {
          "internalType": "uint256",
          "name": "addedValue",
          "type": "uint256"
        }
      ],
      "name": "increaseAllowance",
      "outputs": [
        {
          "internalType": "bool",
          "name": "",
          "type": "bool"
        }
      ],
      "stateMutability": "nonpayable",
      "type": "function"
    },
    {
      "inputs": [],
      "name": "mintTokens",
      "outputs": [],
      "stateMutability": "payable",
      "type": "function"
    },
    {
      "inputs": [],
      "name": "name",
      "outputs": [
        {
          "internalType": "string",
          "name": "",
          "type": "string"
        }
      ],
      "stateMutability": "view",
      "type": "function"
    },
    {
      "inputs": [
        {
          "internalType": "uint256",
          "name": "amount",
          "type": "uint256"
        }
      ],
      "name": "sellBack",
      "outputs": [],
      "stateMutability": "nonpayable",
      "type": "function"
    },
    {
      "inputs": [],
      "name": "symbol",
      "outputs": [
        {
          "internalType": "string",
          "name": "",
          "type": "string"
        }
      ],
      "stateMutability": "view",
      "type": "function"
    },
    {
      "inputs": [],
      "name": "totalSupply",
      "outputs": [
        {
          "internalType": "uint256",
          "name": "",
          "type": "uint256"
        }
      ],
      "stateMutability": "view",
      "type": "function"
    },
    {
      "inputs": [
        {
          "internalType": "address",
          "name": "to",
          "type": "address"
        },
        {
          "internalType": "uint256",
          "name": "amount",
          "type": "uint256"
        }
      ],
      "name": "transfer",
      "outputs": [
        {
          "internalType": "bool",
          "name": "",
          "type": "bool"
        }
      ],
      "stateMutability": "nonpayable",
      "type": "function"
    },
    {
      "inputs": [
        {
          "internalType": "address",
          "name": "from",
          "type": "address"
        },
        {
          "internalType": "address",
          "name": "to",
          "type": "address"
        },
        {
          "internalType": "uint256",
          "name": "amount",
          "type": "uint256"
        }
      ],
      "name": "transferFrom",
      "outputs": [
        {
          "internalType": "bool",
          "name": "",
          "type": "bool"
        }
      ],
      "stateMutability": "nonpayable",
      "type": "function"
    },
    {
      "inputs": [
        {
          "internalType": "address",
          "name": "target",
          "type": "address"
        }
      ],
      "name": "unblacklist",
      "outputs": [],
      "stateMutability": "nonpayable",
      "type": "function"
    },
    {
      "inputs": [
        {
          "internalType": "address payable",
          "name": "_reciever",
          "type": "address"
        }
      ],
      "name": "withdraw",
      "outputs": [],
      "stateMutability": "payable",
      "type": "function"
    }
  ],
  "bytecode": "0x60806040523480156200001157600080fd5b5060405162002abd38038062002abd8339818101604052810190620000379190620004b9565b6040518060400160405280600a81526020017f53616c6520546f6b656e000000000000000000000000000000000000000000008152506040518060400160405280600381526020017f53414c00000000000000000000000000000000000000000000000000000000008152508160039080519060200190620000bb929190620003c9565b508060049080519060200190620000d4929190620003c9565b505050620000e933826200013160201b60201c565b33600660006101000a81548173ffffffffffffffffffffffffffffffffffffffff021916908373ffffffffffffffffffffffffffffffffffffffff1602179055505062000797565b600073ffffffffffffffffffffffffffffffffffffffff168273ffffffffffffffffffffffffffffffffffffffff161415620001a4576040517f08c379a00000000000000000000000000000000000000000000000000000000081526004016200019b906200054c565b60405180910390fd5b620001b8600083836200029f60201b60201c565b8060026000828254620001cc91906200059d565b92505081905550806000808473ffffffffffffffffffffffffffffffffffffffff1673ffffffffffffffffffffffffffffffffffffffff168152602001908152602001600020600082825401925050819055508173ffffffffffffffffffffffffffffffffffffffff16600073ffffffffffffffffffffffffffffffffffffffff167fddf252ad1be2c89b69c2b068fc378daa952ba7f163c4a11628f55a4df523b3ef836040516200027f91906200060b565b60405180910390a36200029b60008383620003c460201b60201c565b5050565b600560008473ffffffffffffffffffffffffffffffffffffffff1673ffffffffffffffffffffffffffffffffffffffff16815260200190815260200160002060009054906101000a900460ff16156200032f576040517f08c379a0000000000000000000000000000000000000000000000000000000008152600401620003269062000678565b60405180910390fd5b600560008373ffffffffffffffffffffffffffffffffffffffff1673ffffffffffffffffffffffffffffffffffffffff16815260200190815260200160002060009054906101000a900460ff1615620003bf576040517f08c379a0000000000000000000000000000000000000000000000000000000008152600401620003b69062000710565b60405180910390fd5b505050565b505050565b828054620003d79062000761565b90600052602060002090601f016020900481019282620003fb576000855562000447565b82601f106200041657805160ff191683800117855562000447565b8280016001018555821562000447579182015b828111156200044657825182559160200191906001019062000429565b5b5090506200045691906200045a565b5090565b5b80821115620004755760008160009055506001016200045b565b5090565b600080fd5b6000819050919050565b62000493816200047e565b81146200049f57600080fd5b50565b600081519050620004b38162000488565b92915050565b600060208284031215620004d257620004d162000479565b5b6000620004e284828501620004a2565b91505092915050565b600082825260208201905092915050565b7f45524332303a206d696e7420746f20746865207a65726f206164647265737300600082015250565b600062000534601f83620004eb565b91506200054182620004fc565b602082019050919050565b60006020820190508181036000830152620005678162000525565b9050919050565b7f4e487b7100000000000000000000000000000000000000000000000000000000600052601160045260246000fd5b6000620005aa826200047e565b9150620005b7836200047e565b9250827fffffffffffffffffffffffffffffffffffffffffffffffffffffffffffffffff03821115620005ef57620005ee6200056e565b5b828201905092915050565b62000605816200047e565b82525050565b6000602082019050620006226000830184620005fa565b92915050565b7f53656e646572206164647265737320697320626c61636b6c69737465642e0000600082015250565b600062000660601e83620004eb565b91506200066d8262000628565b602082019050919050565b60006020820190508181036000830152620006938162000651565b9050919050565b7f526563697069656e74206164647265737320697320626c61636b6c697374656460008201527f2e00000000000000000000000000000000000000000000000000000000000000602082015250565b6000620006f8602183620004eb565b915062000705826200069a565b604082019050919050565b600060208201905081810360008301526200072b81620006e9565b9050919050565b7f4e487b7100000000000000000000000000000000000000000000000000000000600052602260045260246000fd5b600060028204905060018216806200077a57607f821691505b6020821081141562000791576200079062000732565b5b50919050565b61231680620007a76000396000f3fe6080604052600436106100fe5760003560e01c806375e3661e11610095578063ad5d4bc511610064578063ad5d4bc514610362578063dd62ed3e1461038b578063e77ff2f6146103c8578063eeb9635c146103f3578063f9f92be4146103fd576100fe565b806375e3661e1461029457806395d89b41146102bd578063a457c2d7146102e8578063a9059cbb14610325576100fe565b8063313ce567116100d1578063313ce567146101d357806339509351146101fe57806351cff8d91461023b57806370a0823114610257576100fe565b806306fdde0314610103578063095ea7b31461012e57806318160ddd1461016b57806323b872dd14610196575b600080fd5b34801561010f57600080fd5b50610118610426565b60405161012591906114a6565b60405180910390f35b34801561013a57600080fd5b5061015560048036038101906101509190611561565b6104b8565b60405161016291906115bc565b60405180910390f35b34801561017757600080fd5b506101806104db565b60405161018d91906115e6565b60405180910390f35b3480156101a257600080fd5b506101bd60048036038101906101b89190611601565b6104e5565b6040516101ca91906115bc565b60405180910390f35b3480156101df57600080fd5b506101e8610514565b6040516101f59190611670565b60405180910390f35b34801561020a57600080fd5b5061022560048036038101906102209190611561565b61051d565b60405161023291906115bc565b60405180910390f35b610255600480360381019061025091906116c9565b610554565b005b34801561026357600080fd5b5061027e600480360381019061027991906116f6565b61068f565b60405161028b91906115e6565b60405180910390f35b3480156102a057600080fd5b506102bb60048036038101906102b691906116f6565b6106d7565b005b3480156102c957600080fd5b506102d26107c2565b6040516102df91906114a6565b60405180910390f35b3480156102f457600080fd5b5061030f600480360381019061030a9190611561565b610854565b60405161031c91906115bc565b60405180910390f35b34801561033157600080fd5b5061034c60048036038101906103479190611561565b6108cb565b60405161035991906115bc565b60405180910390f35b34801561036e57600080fd5b5061038960048036038101906103849190611723565b6108ee565b005b34801561039757600080fd5b506103b260048036038101906103ad9190611750565b610ab7565b6040516103bf91906115e6565b60405180910390f35b3480156103d457600080fd5b506103dd610b3e565b6040516103ea919061179f565b60405180910390f35b6103fb610b64565b005b34801561040957600080fd5b50610424600480360381019061041f91906116f6565b610bd0565b005b606060038054610435906117e9565b80601f0160208091040260200160405190810160405280929190818152602001828054610461906117e9565b80156104ae5780601f10610483576101008083540402835291602001916104ae565b820191906000526020600020905b81548152906001019060200180831161049157829003601f168201915b5050505050905090565b6000806104c3610cbb565b90506104d0818585610cc3565b600191505092915050565b6000600254905090565b6000806104f0610cbb565b90506104fd858285610e8e565b610508858585610f1a565b60019150509392505050565b60006012905090565b600080610528610cbb565b905061054981858561053a8589610ab7565b610544919061184a565b610cc3565b600191505092915050565b600660009054906101000a900473ffffffffffffffffffffffffffffffffffffffff1673ffffffffffffffffffffffffffffffffffffffff163373ffffffffffffffffffffffffffffffffffffffff16146105e4576040517f08c379a00000000000000000000000000000000000000000000000000000000081526004016105db90611912565b60405180910390fd5b60004711610627576040517f08c379a000000000000000000000000000000000000000000000000000000000815260040161061e9061197e565b60405180910390fd5b8073ffffffffffffffffffffffffffffffffffffffff163073ffffffffffffffffffffffffffffffffffffffff167fddf252ad1be2c89b69c2b068fc378daa952ba7f163c4a11628f55a4df523b3ef4760405161068491906115e6565b60405180910390a350565b60008060008373ffffffffffffffffffffffffffffffffffffffff1673ffffffffffffffffffffffffffffffffffffffff168152602001908152602001600020549050919050565b600660009054906101000a900473ffffffffffffffffffffffffffffffffffffffff1673ffffffffffffffffffffffffffffffffffffffff163373ffffffffffffffffffffffffffffffffffffffff1614610767576040517f08c379a000000000000000000000000000000000000000000000000000000000815260040161075e90611a10565b60405180910390fd5b6000600560008373ffffffffffffffffffffffffffffffffffffffff1673ffffffffffffffffffffffffffffffffffffffff16815260200190815260200160002060006101000a81548160ff02191690831515021790555050565b6060600480546107d1906117e9565b80601f01602080910402602001604051908101604052809291908181526020018280546107fd906117e9565b801561084a5780601f1061081f5761010080835404028352916020019161084a565b820191906000526020600020905b81548152906001019060200180831161082d57829003601f168201915b5050505050905090565b60008061085f610cbb565b9050600061086d8286610ab7565b9050838110156108b2576040517f08c379a00000000000000000000000000000000000000000000000000000000081526004016108a990611aa2565b60405180910390fd5b6108bf8286868403610cc3565b60019250505092915050565b6000806108d6610cbb565b90506108e3818585610f1a565b600191505092915050565b60008111610931576040517f08c379a000000000000000000000000000000000000000000000000000000000815260040161092890611b0e565b60405180910390fd5b61093a3361068f565b81111561097c576040517f08c379a000000000000000000000000000000000000000000000000000000000815260040161097390611b7a565b60405180910390fd5b6101f48161098a9190611bc9565b4710156109cc576040517f08c379a00000000000000000000000000000000000000000000000000000000081526004016109c390611c6c565b60405180910390fd5b6109d630826104b8565b503073ffffffffffffffffffffffffffffffffffffffff163373ffffffffffffffffffffffffffffffffffffffff167fddf252ad1be2c89b69c2b068fc378daa952ba7f163c4a11628f55a4df523b3ef83604051610a3491906115e6565b60405180910390a360006101f482610a4c9190611bc9565b90503373ffffffffffffffffffffffffffffffffffffffff163073ffffffffffffffffffffffffffffffffffffffff167fddf252ad1be2c89b69c2b068fc378daa952ba7f163c4a11628f55a4df523b3ef83604051610aab91906115e6565b60405180910390a35050565b6000600160008473ffffffffffffffffffffffffffffffffffffffff1673ffffffffffffffffffffffffffffffffffffffff16815260200190815260200160002060008373ffffffffffffffffffffffffffffffffffffffff1673ffffffffffffffffffffffffffffffffffffffff16815260200190815260200160002054905092915050565b600660009054906101000a900473ffffffffffffffffffffffffffffffffffffffff1681565b620f4240610b706104db565b1115610bb1576040517f08c379a0000000000000000000000000000000000000000000000000000000008152600401610ba890611d24565b60405180910390fd5b60006103e834610bc19190611d44565b9050610bcd3382611192565b50565b600660009054906101000a900473ffffffffffffffffffffffffffffffffffffffff1673ffffffffffffffffffffffffffffffffffffffff163373ffffffffffffffffffffffffffffffffffffffff1614610c60576040517f08c379a0000000000000000000000000000000000000000000000000000000008152600401610c5790611e10565b60405180910390fd5b6001600560008373ffffffffffffffffffffffffffffffffffffffff1673ffffffffffffffffffffffffffffffffffffffff16815260200190815260200160002060006101000a81548160ff02191690831515021790555050565b600033905090565b600073ffffffffffffffffffffffffffffffffffffffff168373ffffffffffffffffffffffffffffffffffffffff161415610d33576040517f08c379a0000000000000000000000000000000000000000000000000000000008152600401610d2a90611ea2565b60405180910390fd5b600073ffffffffffffffffffffffffffffffffffffffff168273ffffffffffffffffffffffffffffffffffffffff161415610da3576040517f08c379a0000000000000000000000000000000000000000000000000000000008152600401610d9a90611f34565b60405180910390fd5b80600160008573ffffffffffffffffffffffffffffffffffffffff1673ffffffffffffffffffffffffffffffffffffffff16815260200190815260200160002060008473ffffffffffffffffffffffffffffffffffffffff1673ffffffffffffffffffffffffffffffffffffffff168152602001908152602001600020819055508173ffffffffffffffffffffffffffffffffffffffff168373ffffffffffffffffffffffffffffffffffffffff167f8c5be1e5ebec7d5bd14f71427d1e84f3dd0314c0f7b2291e5b200ac8c7c3b92583604051610e8191906115e6565b60405180910390a3505050565b6000610e9a8484610ab7565b90507fffffffffffffffffffffffffffffffffffffffffffffffffffffffffffffffff8114610f145781811015610f06576040517f08c379a0000000000000000000000000000000000000000000000000000000008152600401610efd90611fa0565b60405180910390fd5b610f138484848403610cc3565b5b50505050565b600073ffffffffffffffffffffffffffffffffffffffff168373ffffffffffffffffffffffffffffffffffffffff161415610f8a576040517f08c379a0000000000000000000000000000000000000000000000000000000008152600401610f8190612032565b60405180910390fd5b600073ffffffffffffffffffffffffffffffffffffffff168273ffffffffffffffffffffffffffffffffffffffff161415610ffa576040517f08c379a0000000000000000000000000000000000000000000000000000000008152600401610ff1906120c4565b60405180910390fd5b6110058383836112e9565b60008060008573ffffffffffffffffffffffffffffffffffffffff1673ffffffffffffffffffffffffffffffffffffffff1681526020019081526020016000205490508181101561108b576040517f08c379a000000000000000000000000000000000000000000000000000000000815260040161108290612156565b60405180910390fd5b8181036000808673ffffffffffffffffffffffffffffffffffffffff1673ffffffffffffffffffffffffffffffffffffffff16815260200190815260200160002081905550816000808573ffffffffffffffffffffffffffffffffffffffff1673ffffffffffffffffffffffffffffffffffffffff168152602001908152602001600020600082825401925050819055508273ffffffffffffffffffffffffffffffffffffffff168473ffffffffffffffffffffffffffffffffffffffff167fddf252ad1be2c89b69c2b068fc378daa952ba7f163c4a11628f55a4df523b3ef8460405161117991906115e6565b60405180910390a361118c848484611408565b50505050565b600073ffffffffffffffffffffffffffffffffffffffff168273ffffffffffffffffffffffffffffffffffffffff161415611202576040517f08c379a00000000000000000000000000000000000000000000000000000000081526004016111f9906121c2565b60405180910390fd5b61120e600083836112e9565b8060026000828254611220919061184a565b92505081905550806000808473ffffffffffffffffffffffffffffffffffffffff1673ffffffffffffffffffffffffffffffffffffffff168152602001908152602001600020600082825401925050819055508173ffffffffffffffffffffffffffffffffffffffff16600073ffffffffffffffffffffffffffffffffffffffff167fddf252ad1be2c89b69c2b068fc378daa952ba7f163c4a11628f55a4df523b3ef836040516112d191906115e6565b60405180910390a36112e560008383611408565b5050565b600560008473ffffffffffffffffffffffffffffffffffffffff1673ffffffffffffffffffffffffffffffffffffffff16815260200190815260200160002060009054906101000a900460ff1615611376576040517f08c379a000000000000000000000000000000000000000000000000000000000815260040161136d9061222e565b60405180910390fd5b600560008373ffffffffffffffffffffffffffffffffffffffff1673ffffffffffffffffffffffffffffffffffffffff16815260200190815260200160002060009054906101000a900460ff1615611403576040517f08c379a00000000000000000000000000000000000000000000000000000000081526004016113fa906122c0565b60405180910390fd5b505050565b505050565b600081519050919050565b600082825260208201905092915050565b60005b8381101561144757808201518184015260208101905061142c565b83811115611456576000848401525b50505050565b6000601f19601f8301169050919050565b60006114788261140d565b6114828185611418565b9350611492818560208601611429565b61149b8161145c565b840191505092915050565b600060208201905081810360008301526114c0818461146d565b905092915050565b600080fd5b600073ffffffffffffffffffffffffffffffffffffffff82169050919050565b60006114f8826114cd565b9050919050565b611508816114ed565b811461151357600080fd5b50565b600081359050611525816114ff565b92915050565b6000819050919050565b61153e8161152b565b811461154957600080fd5b50565b60008135905061155b81611535565b92915050565b60008060408385031215611578576115776114c8565b5b600061158685828601611516565b92505060206115978582860161154c565b9150509250929050565b60008115159050919050565b6115b6816115a1565b82525050565b60006020820190506115d160008301846115ad565b92915050565b6115e08161152b565b82525050565b60006020820190506115fb60008301846115d7565b92915050565b60008060006060848603121561161a576116196114c8565b5b600061162886828701611516565b935050602061163986828701611516565b925050604061164a8682870161154c565b9150509250925092565b600060ff82169050919050565b61166a81611654565b82525050565b60006020820190506116856000830184611661565b92915050565b6000611696826114cd565b9050919050565b6116a68161168b565b81146116b157600080fd5b50565b6000813590506116c38161169d565b92915050565b6000602082840312156116df576116de6114c8565b5b60006116ed848285016116b4565b91505092915050565b60006020828403121561170c5761170b6114c8565b5b600061171a84828501611516565b91505092915050565b600060208284031215611739576117386114c8565b5b60006117478482850161154c565b91505092915050565b60008060408385031215611767576117666114c8565b5b600061177585828601611516565b925050602061178685828601611516565b9150509250929050565b611799816114ed565b82525050565b60006020820190506117b46000830184611790565b92915050565b7f4e487b7100000000000000000000000000000000000000000000000000000000600052602260045260246000fd5b6000600282049050600182168061180157607f821691505b60208210811415611815576118146117ba565b5b50919050565b7f4e487b7100000000000000000000000000000000000000000000000000000000600052601160045260246000fd5b60006118558261152b565b91506118608361152b565b9250827fffffffffffffffffffffffffffffffffffffffffffffffffffffffffffffffff038211156118955761189461181b565b5b828201905092915050565b7f4f6e6c79207468652063656e7472616c20617574686f726974792063616e207760008201527f697468647261772065746865722066726f6d2074686520636f6e747261637400602082015250565b60006118fc603f83611418565b9150611907826118a0565b604082019050919050565b6000602082019050818103600083015261192b816118ef565b9050919050565b7f5468657265206973206e6f20657468657220746f207769746864726177000000600082015250565b6000611968601d83611418565b915061197382611932565b602082019050919050565b600060208201905081810360008301526119978161195b565b9050919050565b7f4f6e6c79207468652063656e7472616c20617574686f726974792063616e207560008201527f6e626c61636b6c697374206164647265737365732e0000000000000000000000602082015250565b60006119fa603583611418565b9150611a058261199e565b604082019050919050565b60006020820190508181036000830152611a29816119ed565b9050919050565b7f45524332303a2064656372656173656420616c6c6f77616e63652062656c6f7760008201527f207a65726f000000000000000000000000000000000000000000000000000000602082015250565b6000611a8c602583611418565b9150611a9782611a30565b604082019050919050565b60006020820190508181036000830152611abb81611a7f565b9050919050565b7f43616e6e6f742073656c6c2030206f72206c65737320746f6b656e732e000000600082015250565b6000611af8601d83611418565b9150611b0382611ac2565b602082019050919050565b60006020820190508181036000830152611b2781611aeb565b9050919050565b7f496e73756666696369656e742062616c616e636520746f2073656c6c2e000000600082015250565b6000611b64601d83611418565b9150611b6f82611b2e565b602082019050919050565b60006020820190508181036000830152611b9381611b57565b9050919050565b7f4e487b7100000000000000000000000000000000000000000000000000000000600052601260045260246000fd5b6000611bd48261152b565b9150611bdf8361152b565b925082611bef57611bee611b9a565b5b828204905092915050565b7f436f6e747261637420646f6573206e6f74206861766520656e6f75676820657460008201527f68657220746f2070617920757365722e00000000000000000000000000000000602082015250565b6000611c56603083611418565b9150611c6182611bfa565b604082019050919050565b60006020820190508181036000830152611c8581611c49565b9050919050565b7f546f6b656e2073616c6520697320636c6f7365642c207765206861766520726560008201527f616368656420746865206d6178696d756d20737570706c79206f662031206d6960208201527f6c6c696f6e20746f6b656e730000000000000000000000000000000000000000604082015250565b6000611d0e604c83611418565b9150611d1982611c8c565b606082019050919050565b60006020820190508181036000830152611d3d81611d01565b9050919050565b6000611d4f8261152b565b9150611d5a8361152b565b9250817fffffffffffffffffffffffffffffffffffffffffffffffffffffffffffffffff0483118215151615611d9357611d9261181b565b5b828202905092915050565b7f4f6e6c79207468652063656e7472616c20617574686f726974792063616e206260008201527f6c61636b6c697374206164647265737365732e00000000000000000000000000602082015250565b6000611dfa603383611418565b9150611e0582611d9e565b604082019050919050565b60006020820190508181036000830152611e2981611ded565b9050919050565b7f45524332303a20617070726f76652066726f6d20746865207a65726f2061646460008201527f7265737300000000000000000000000000000000000000000000000000000000602082015250565b6000611e8c602483611418565b9150611e9782611e30565b604082019050919050565b60006020820190508181036000830152611ebb81611e7f565b9050919050565b7f45524332303a20617070726f766520746f20746865207a65726f20616464726560008201527f7373000000000000000000000000000000000000000000000000000000000000602082015250565b6000611f1e602283611418565b9150611f2982611ec2565b604082019050919050565b60006020820190508181036000830152611f4d81611f11565b9050919050565b7f45524332303a20696e73756666696369656e7420616c6c6f77616e6365000000600082015250565b6000611f8a601d83611418565b9150611f9582611f54565b602082019050919050565b60006020820190508181036000830152611fb981611f7d565b9050919050565b7f45524332303a207472616e736665722066726f6d20746865207a65726f20616460008201527f6472657373000000000000000000000000000000000000000000000000000000602082015250565b600061201c602583611418565b915061202782611fc0565b604082019050919050565b6000602082019050818103600083015261204b8161200f565b9050919050565b7f45524332303a207472616e7366657220746f20746865207a65726f206164647260008201527f6573730000000000000000000000000000000000000000000000000000000000602082015250565b60006120ae602383611418565b91506120b982612052565b604082019050919050565b600060208201905081810360008301526120dd816120a1565b9050919050565b7f45524332303a207472616e7366657220616d6f756e742065786365656473206260008201527f616c616e63650000000000000000000000000000000000000000000000000000602082015250565b6000612140602683611418565b915061214b826120e4565b604082019050919050565b6000602082019050818103600083015261216f81612133565b9050919050565b7f45524332303a206d696e7420746f20746865207a65726f206164647265737300600082015250565b60006121ac601f83611418565b91506121b782612176565b602082019050919050565b600060208201905081810360008301526121db8161219f565b9050919050565b7f53656e646572206164647265737320697320626c61636b6c69737465642e0000600082015250565b6000612218601e83611418565b9150612223826121e2565b602082019050919050565b600060208201905081810360008301526122478161220b565b9050919050565b7f526563697069656e74206164647265737320697320626c61636b6c697374656460008201527f2e00000000000000000000000000000000000000000000000000000000000000602082015250565b60006122aa602183611418565b91506122b58261224e565b604082019050919050565b600060208201905081810360008301526122d98161229d565b905091905056fea26469706673582212206706d1533941caeae87a773a65b17ac02cbf35636d96bc5e53c8203e2b3f4e0864736f6c63430008090033",
  "linkReferences": {},
  "deployedLinkReferences": {}
}